{
    "contractName": "CryptoCupsTickets",
    "abi": [
        {
            "inputs": [
                {
                    "internalType": "string",
                    "name": "name_",
                    "type": "string"
                },
                {
                    "internalType": "string",
                    "name": "symbol_",
                    "type": "string"
                }
            ],
            "stateMutability": "nonpayable",
            "type": "constructor"
        },
        {
            "inputs": [],
            "name": "ApprovalCallerNotOwnerNorApproved",
            "type": "error"
        },
        {
            "inputs": [],
            "name": "ApprovalQueryForNonexistentToken",
            "type": "error"
        },
        {
            "inputs": [],
            "name": "ApprovalToCurrentOwner",
            "type": "error"
        },
        {
            "inputs": [],
            "name": "ApproveToCaller",
            "type": "error"
        },
        {
            "inputs": [],
            "name": "BalanceQueryForZeroAddress",
            "type": "error"
        },
        {
            "inputs": [],
            "name": "MintToZeroAddress",
            "type": "error"
        },
        {
            "inputs": [],
            "name": "MintZeroQuantity",
            "type": "error"
        },
        {
            "inputs": [],
            "name": "OwnerQueryForNonexistentToken",
            "type": "error"
        },
        {
            "inputs": [],
            "name": "TransferCallerNotOwnerNorApproved",
            "type": "error"
        },
        {
            "inputs": [],
            "name": "TransferFromIncorrectOwner",
            "type": "error"
        },
        {
            "inputs": [],
            "name": "TransferToNonERC721ReceiverImplementer",
            "type": "error"
        },
        {
            "inputs": [],
            "name": "TransferToZeroAddress",
            "type": "error"
        },
        {
            "inputs": [],
            "name": "URIQueryForNonexistentToken",
            "type": "error"
        },
        {
            "anonymous": false,
            "inputs": [
                {
                    "indexed": true,
                    "internalType": "address",
                    "name": "owner",
                    "type": "address"
                },
                {
                    "indexed": true,
                    "internalType": "address",
                    "name": "approved",
                    "type": "address"
                },
                {
                    "indexed": true,
                    "internalType": "uint256",
                    "name": "tokenId",
                    "type": "uint256"
                }
            ],
            "name": "Approval",
            "type": "event"
        },
        {
            "anonymous": false,
            "inputs": [
                {
                    "indexed": true,
                    "internalType": "address",
                    "name": "owner",
                    "type": "address"
                },
                {
                    "indexed": true,
                    "internalType": "address",
                    "name": "operator",
                    "type": "address"
                },
                {
                    "indexed": false,
                    "internalType": "bool",
                    "name": "approved",
                    "type": "bool"
                }
            ],
            "name": "ApprovalForAll",
            "type": "event"
        },
        {
            "anonymous": false,
            "inputs": [
                {
                    "indexed": true,
                    "internalType": "address",
                    "name": "from",
                    "type": "address"
                },
                {
                    "indexed": true,
                    "internalType": "address",
                    "name": "to",
                    "type": "address"
                },
                {
                    "indexed": true,
                    "internalType": "uint256",
                    "name": "tokenId",
                    "type": "uint256"
                }
            ],
            "name": "Transfer",
            "type": "event"
        },
        {
            "inputs": [
                {
                    "internalType": "address",
                    "name": "to",
                    "type": "address"
                },
                {
                    "internalType": "uint256",
                    "name": "tokenId",
                    "type": "uint256"
                }
            ],
            "name": "approve",
            "outputs": [],
            "stateMutability": "nonpayable",
            "type": "function"
        },
        {
            "inputs": [
                {
                    "internalType": "address",
                    "name": "owner",
                    "type": "address"
                }
            ],
            "name": "balanceOf",
            "outputs": [
                {
                    "internalType": "uint256",
                    "name": "",
                    "type": "uint256"
                }
            ],
            "stateMutability": "view",
            "type": "function"
        },
        {
            "inputs": [
                {
                    "internalType": "uint256",
                    "name": "",
                    "type": "uint256"
                }
            ],
            "name": "currencies",
            "outputs": [
                {
                    "internalType": "address",
                    "name": "",
                    "type": "address"
                }
            ],
            "stateMutability": "view",
            "type": "function"
        },
        {
            "inputs": [
                {
                    "internalType": "uint256",
                    "name": "tokenId",
                    "type": "uint256"
                }
            ],
            "name": "getApproved",
            "outputs": [
                {
                    "internalType": "address",
                    "name": "",
                    "type": "address"
                }
            ],
            "stateMutability": "view",
            "type": "function"
        },
        {
            "inputs": [
                {
                    "internalType": "address",
                    "name": "owner",
                    "type": "address"
                },
                {
                    "internalType": "address",
                    "name": "operator",
                    "type": "address"
                }
            ],
            "name": "isApprovedForAll",
            "outputs": [
                {
                    "internalType": "bool",
                    "name": "",
                    "type": "bool"
                }
            ],
            "stateMutability": "view",
            "type": "function"
        },
        {
            "inputs": [
                {
                    "internalType": "uint256",
                    "name": "_amount",
                    "type": "uint256"
                },
                {
                    "internalType": "uint256",
                    "name": "_currency",
                    "type": "uint256"
                },
                {
                    "internalType": "uint256",
                    "name": "_type",
                    "type": "uint256"
                }
            ],
            "name": "mint",
            "outputs": [],
            "stateMutability": "nonpayable",
            "type": "function"
        },
        {
            "inputs": [],
            "name": "name",
            "outputs": [
                {
                    "internalType": "string",
                    "name": "",
                    "type": "string"
                }
            ],
            "stateMutability": "view",
            "type": "function"
        },
        {
            "inputs": [
                {
                    "internalType": "uint256",
                    "name": "tokenId",
                    "type": "uint256"
                }
            ],
            "name": "ownerOf",
            "outputs": [
                {
                    "internalType": "address",
                    "name": "",
                    "type": "address"
                }
            ],
            "stateMutability": "view",
            "type": "function"
        },
        {
            "inputs": [
                {
                    "internalType": "uint256",
                    "name": "",
                    "type": "uint256"
                }
            ],
            "name": "prices",
            "outputs": [
                {
                    "internalType": "uint256",
                    "name": "",
                    "type": "uint256"
                }
            ],
            "stateMutability": "view",
            "type": "function"
        },
        {
            "inputs": [
                {
                    "internalType": "address",
                    "name": "from",
                    "type": "address"
                },
                {
                    "internalType": "address",
                    "name": "to",
                    "type": "address"
                },
                {
                    "internalType": "uint256",
                    "name": "tokenId",
                    "type": "uint256"
                }
            ],
            "name": "safeTransferFrom",
            "outputs": [],
            "stateMutability": "nonpayable",
            "type": "function"
        },
        {
            "inputs": [
                {
                    "internalType": "address",
                    "name": "from",
                    "type": "address"
                },
                {
                    "internalType": "address",
                    "name": "to",
                    "type": "address"
                },
                {
                    "internalType": "uint256",
                    "name": "tokenId",
                    "type": "uint256"
                },
                {
                    "internalType": "bytes",
                    "name": "_data",
                    "type": "bytes"
                }
            ],
            "name": "safeTransferFrom",
            "outputs": [],
            "stateMutability": "nonpayable",
            "type": "function"
        },
        {
            "inputs": [
                {
                    "internalType": "address",
                    "name": "operator",
                    "type": "address"
                },
                {
                    "internalType": "bool",
                    "name": "approved",
                    "type": "bool"
                }
            ],
            "name": "setApprovalForAll",
            "outputs": [],
            "stateMutability": "nonpayable",
            "type": "function"
        },
        {
            "inputs": [
                {
                    "internalType": "bytes4",
                    "name": "interfaceId",
                    "type": "bytes4"
                }
            ],
            "name": "supportsInterface",
            "outputs": [
                {
                    "internalType": "bool",
                    "name": "",
                    "type": "bool"
                }
            ],
            "stateMutability": "view",
            "type": "function"
        },
        {
            "inputs": [],
            "name": "symbol",
            "outputs": [
                {
                    "internalType": "string",
                    "name": "",
                    "type": "string"
                }
            ],
            "stateMutability": "view",
            "type": "function"
        },
        {
            "inputs": [
                {
                    "internalType": "uint256",
                    "name": "",
                    "type": "uint256"
                }
            ],
            "name": "ticketType",
            "outputs": [
                {
                    "internalType": "string",
                    "name": "",
                    "type": "string"
                }
            ],
            "stateMutability": "view",
            "type": "function"
        },
        {
            "inputs": [
                {
                    "internalType": "uint256",
                    "name": "tokenId",
                    "type": "uint256"
                }
            ],
            "name": "tokenURI",
            "outputs": [
                {
                    "internalType": "string",
                    "name": "",
                    "type": "string"
                }
            ],
            "stateMutability": "view",
            "type": "function"
        },
        {
            "inputs": [],
            "name": "totalSupply",
            "outputs": [
                {
                    "internalType": "uint256",
                    "name": "",
                    "type": "uint256"
                }
            ],
            "stateMutability": "view",
            "type": "function"
        },
        {
            "inputs": [
                {
                    "internalType": "address",
                    "name": "from",
                    "type": "address"
                },
                {
                    "internalType": "address",
                    "name": "to",
                    "type": "address"
                },
                {
                    "internalType": "uint256",
                    "name": "tokenId",
                    "type": "uint256"
                }
            ],
            "name": "transferFrom",
            "outputs": [],
            "stateMutability": "nonpayable",
            "type": "function"
        }
    ],
    "bytecode": "600560c081815264426173696360d81b60e052608090815261014060405261010091825264109bdbdcdd60da1b6101205260a091909152620000469060099060026200015e565b5060408051808201909152600f8152602860208201526200006c90600a906002620001c2565b5060408051608081018252738f3cf7ad23cd3cadbd9735aff958023239c6a063815273a8d394fe7380b8ce6145d5f85e6ac22d4e91acde6020820152732791bca1f2de4661ed88a30c99a7a9449aa841749181019190915273c2132d05d31c914a87c6611c10748aeb04b58e8f6060820152620000ee90600b90600462000213565b50348015620000fc57600080fd5b5060405162001b1238038062001b128339810160408190526200011f916200042f565b815182908290620001389060029060208501906200026b565b5080516200014e9060039060208401906200026b565b506000805550620004d592505050565b828054828255906000526020600020908101928215620001b0579160200282015b82811115620001b057825180516200019f9184916020909101906200026b565b50916020019190600101906200017f565b50620001be929150620002e8565b5090565b82805482825590600052602060002090810192821562000205579160200282015b8281111562000205578251829060ff16905591602001919060010190620001e3565b50620001be92915062000309565b82805482825590600052602060002090810192821562000205579160200282015b828111156200020557825182546001600160a01b0319166001600160a01b0390911617825560209092019160019091019062000234565b828054620002799062000499565b90600052602060002090601f0160209004810192826200029d576000855562000205565b82601f10620002b857805160ff191683800117855562000205565b8280016001018555821562000205579182015b8281111562000205578251825591602001919060010190620002cb565b80821115620001be576000620002ff828262000320565b50600101620002e8565b5b80821115620001be57600081556001016200030a565b5080546200032e9062000499565b6000825580601f106200033f575050565b601f0160209004906000526020600020908101906200035f919062000309565b50565b634e487b7160e01b600052604160045260246000fd5b600082601f8301126200038a57600080fd5b81516001600160401b0380821115620003a757620003a762000362565b604051601f8301601f19908116603f01168101908282118183101715620003d257620003d262000362565b81604052838152602092508683858801011115620003ef57600080fd5b600091505b83821015620004135785820183015181830184015290820190620003f4565b83821115620004255760008385830101525b9695505050505050565b600080604083850312156200044357600080fd5b82516001600160401b03808211156200045b57600080fd5b620004698683870162000378565b935060208501519150808211156200048057600080fd5b506200048f8582860162000378565b9150509250929050565b600181811c90821680620004ae57607f821691505b602082108103620004cf57634e487b7160e01b600052602260045260246000fd5b50919050565b61162d80620004e56000396000f3fe608060405234801561001057600080fd5b50600436106101165760003560e01c806370a08231116100a2578063b88d4fde11610071578063b88d4fde1461023b578063bc31c1c11461024e578063c87b56dd14610261578063e985e9c514610274578063f6d1c271146102b057600080fd5b806370a08231146101fa5780637abe73b61461020d57806395d89b4114610220578063a22cb4651461022857600080fd5b8063095ea7b3116100e9578063095ea7b31461019857806318160ddd146101ab57806323b872dd146101c157806342842e0e146101d45780636352211e146101e757600080fd5b806301ffc9a71461011b57806302acc94b1461014357806306fdde0314610158578063081812fc1461016d575b600080fd5b61012e6101293660046111c4565b6102c3565b60405190151581526020015b60405180910390f35b6101566101513660046111e1565b610315565b005b6101606106de565b60405161013a9190611265565b61018061017b366004611278565b610770565b6040516001600160a01b03909116815260200161013a565b6101566101a63660046112ad565b6107b4565b600154600054035b60405190815260200161013a565b6101566101cf3660046112d7565b610886565b6101566101e23660046112d7565b610896565b6101806101f5366004611278565b6108b1565b6101b3610208366004611313565b6108c3565b61016061021b366004611278565b610912565b6101606109ac565b61015661023636600461133c565b6109bb565b610156610249366004611389565b610a50565b6101b361025c366004611278565b610a9a565b61016061026f366004611278565b610abb565b61012e610282366004611465565b6001600160a01b03918216600090815260076020908152604080832093909416825291909152205460ff1690565b6101806102be366004611278565b610b4c565b60006301ffc9a760e01b6001600160e01b0319831614806102f457506380ac58cd60e01b6001600160e01b03198316145b8061030f5750635b5e139f60e01b6001600160e01b03198316145b92915050565b6000831161035c5760405162461bcd60e51b815260206004820152600f60248201526e24b73b30b634b21020b6b7bab73a1760891b60448201526064015b60405180910390fd5b600b5482106103a15760405162461bcd60e51b815260206004820152601160248201527024b73b30b634b21021bab93932b731bc9760791b6044820152606401610353565b60095481106103e25760405162461bcd60e51b815260206004820152600d60248201526c24b73b30b634b2102a3cb8329760991b6044820152606401610353565b6000600b83815481106103f7576103f7611498565b60009182526020808320909101546040805163313ce56760e01b815290516001600160a01b039092169450849263313ce567926004808401938290030181865afa158015610449573d6000803e3d6000fd5b505050506040513d601f19601f8201168201806040525081019061046d91906114ae565b60ff16600a848154811061048357610483611498565b90600052602060002001548661049991906114d1565b6104a391906114d1565b9050600a83815481106104b8576104b8611498565b6000918252602090912001546040516370a0823160e01b81523360048201526001600160a01b038416906370a0823190602401602060405180830381865afa158015610508573d6000803e3d6000fd5b505050506040513d601f19601f8201168201806040525081019061052c91906114fe565b101561057a5760405162461bcd60e51b815260206004820152601a60248201527f4e6f7420456e6f7567682042616c616e636520746f205061792e0000000000006044820152606401610353565b600a838154811061058d5761058d611498565b600091825260209091200154604051636eb1769f60e11b81523360048201523060248201526001600160a01b0384169063dd62ed3e90604401602060405180830381865afa1580156105e3573d6000803e3d6000fd5b505050506040513d601f19601f8201168201806040525081019061060791906114fe565b10156106555760405162461bcd60e51b815260206004820152601a60248201527f4e6f7420456e6f7567682042616c616e636520746f205061792e0000000000006044820152606401610353565b6040516323b872dd60e01b8152336004820152306024820152604481018290526001600160a01b038316906323b872dd906064016020604051808303816000875af11580156106a8573d6000803e3d6000fd5b505050506040513d601f19601f820116820180604052508101906106cc9190611517565b506106d73386610b76565b5050505050565b6060600280546106ed90611534565b80601f016020809104026020016040519081016040528092919081815260200182805461071990611534565b80156107665780601f1061073b57610100808354040283529160200191610766565b820191906000526020600020905b81548152906001019060200180831161074957829003601f168201915b5050505050905090565b600061077b82610ca9565b610798576040516333d1c03960e21b815260040160405180910390fd5b506000908152600660205260409020546001600160a01b031690565b60006107bf826108b1565b9050806001600160a01b0316836001600160a01b0316036107f35760405163250fdee360e21b815260040160405180910390fd5b336001600160a01b0382161461082a5761080d8133610282565b61082a576040516367d9dca160e11b815260040160405180910390fd5b60008281526006602052604080822080546001600160a01b0319166001600160a01b0387811691821790925591518593918516917f8c5be1e5ebec7d5bd14f71427d1e84f3dd0314c0f7b2291e5b200ac8c7c3b92591a4505050565b610891838383610cd4565b505050565b61089183838360405180602001604052806000815250610a50565b60006108bc82610ed0565b5192915050565b60006001600160a01b0382166108ec576040516323d3ad8160e21b815260040160405180910390fd5b506001600160a01b031660009081526005602052604090205467ffffffffffffffff1690565b6008602052600090815260409020805461092b90611534565b80601f016020809104026020016040519081016040528092919081815260200182805461095790611534565b80156109a45780601f10610979576101008083540402835291602001916109a4565b820191906000526020600020905b81548152906001019060200180831161098757829003601f168201915b505050505081565b6060600380546106ed90611534565b336001600160a01b038316036109e45760405163b06307db60e01b815260040160405180910390fd5b3360008181526007602090815260408083206001600160a01b03871680855290835292819020805460ff191686151590811790915590519081529192917f17307eab39ab6107e8899845ad3d59bd9653f200f220920489ca2b5937696c31910160405180910390a35050565b610a5b848484610cd4565b6001600160a01b0383163b15610a9457610a7784848484610fec565b610a94576040516368d2bf6b60e11b815260040160405180910390fd5b50505050565b600a8181548110610aaa57600080fd5b600091825260209091200154905081565b6060610ac682610ca9565b610ae357604051630a14c4b560e41b815260040160405180910390fd5b6000610afa60408051602081019091526000815290565b90508051600003610b1a5760405180602001604052806000815250610b45565b80610b24846110d8565b604051602001610b3592919061156e565b6040516020818303038152906040525b9392505050565b600b8181548110610b5c57600080fd5b6000918252602090912001546001600160a01b0316905081565b6000546001600160a01b038316610b9f57604051622e076360e81b815260040160405180910390fd5b81600003610bc05760405163b562e8dd60e01b815260040160405180910390fd5b6001600160a01b038316600081815260056020908152604080832080546fffffffffffffffffffffffffffffffff19811667ffffffffffffffff8083168a0181169182176801000000000000000067ffffffffffffffff1990941690921783900481168a01811690920217909155858452600490925290912080546001600160e01b031916909217600160a01b4290921691909102179055808083015b6040516001830192906001600160a01b038716906000907fddf252ad1be2c89b69c2b068fc378daa952ba7f163c4a11628f55a4df523b3ef908290a4808210610c5d5750600055505050565b600080548210801561030f575050600090815260046020526040902054600160e01b900460ff161590565b6000610cdf82610ed0565b9050836001600160a01b031681600001516001600160a01b031614610d165760405162a1148160e81b815260040160405180910390fd5b6000336001600160a01b0386161480610d345750610d348533610282565b80610d4f575033610d4484610770565b6001600160a01b0316145b905080610d6f57604051632ce44b5f60e11b815260040160405180910390fd5b6001600160a01b038416610d9657604051633a954ecd60e21b815260040160405180910390fd5b600083815260066020908152604080832080546001600160a01b03191690556001600160a01b03888116845260058352818420805467ffffffffffffffff1980821667ffffffffffffffff92831660001901831617909255898316808752848720805493841693831660019081018416949094179055898752600490955283862080546001600160e01b031916909517600160a01b4290921691909102178455870180855291909320805492939192909116610e87576000548214610e87578054602086015167ffffffffffffffff16600160a01b026001600160e01b03199091166001600160a01b038a16171781555b50505082846001600160a01b0316866001600160a01b03167fddf252ad1be2c89b69c2b068fc378daa952ba7f163c4a11628f55a4df523b3ef60405160405180910390a46106d7565b604080516060810182526000808252602082018190529181019190915281600054811015610fd357600081815260046020908152604091829020825160608101845290546001600160a01b0381168252600160a01b810467ffffffffffffffff1692820192909252600160e01b90910460ff16151591810182905290610fd15780516001600160a01b031615610f67579392505050565b5060001901600081815260046020908152604091829020825160608101845290546001600160a01b038116808352600160a01b820467ffffffffffffffff1693830193909352600160e01b900460ff1615159281019290925215610fcc579392505050565b610f67565b505b604051636f96cda160e11b815260040160405180910390fd5b604051630a85bd0160e11b81526000906001600160a01b0385169063150b7a029061102190339089908890889060040161159d565b6020604051808303816000875af192505050801561105c575060408051601f3d908101601f19168201909252611059918101906115da565b60015b6110ba573d80801561108a576040519150601f19603f3d011682016040523d82523d6000602084013e61108f565b606091505b5080516000036110b2576040516368d2bf6b60e11b815260040160405180910390fd5b805181602001fd5b6001600160e01b031916630a85bd0160e11b1490505b949350505050565b6060816000036110ff5750506040805180820190915260018152600360fc1b602082015290565b8160005b811561111757600101600a82049150611103565b60008167ffffffffffffffff81111561113257611132611373565b6040519080825280601f01601f19166020018201604052801561115c576020820181803683370190505b5090505b84156110d05760001990910190600a850660300160f81b81838151811061118957611189611498565b60200101906001600160f81b031916908160001a905350600a85049450611160565b6001600160e01b0319811681146111c157600080fd5b50565b6000602082840312156111d657600080fd5b8135610b45816111ab565b6000806000606084860312156111f657600080fd5b505081359360208301359350604090920135919050565b60005b83811015611228578181015183820152602001611210565b83811115610a945750506000910152565b6000815180845261125181602086016020860161120d565b601f01601f19169290920160200192915050565b602081526000610b456020830184611239565b60006020828403121561128a57600080fd5b5035919050565b80356001600160a01b03811681146112a857600080fd5b919050565b600080604083850312156112c057600080fd5b6112c983611291565b946020939093013593505050565b6000806000606084860312156112ec57600080fd5b6112f584611291565b925061130360208501611291565b9150604084013590509250925092565b60006020828403121561132557600080fd5b610b4582611291565b80151581146111c157600080fd5b6000806040838503121561134f57600080fd5b61135883611291565b915060208301356113688161132e565b809150509250929050565b634e487b7160e01b600052604160045260246000fd5b6000806000806080858703121561139f57600080fd5b6113a885611291565b93506113b660208601611291565b925060408501359150606085013567ffffffffffffffff808211156113da57600080fd5b818701915087601f8301126113ee57600080fd5b81358181111561140057611400611373565b604051601f8201601f19908116603f0116810190838211818310171561142857611428611373565b816040528281528a602084870101111561144157600080fd5b82602086016020830137600060208483010152809550505050505092959194509250565b6000806040838503121561147857600080fd5b61148183611291565b915061148f60208401611291565b90509250929050565b634e487b7160e01b600052603260045260246000fd5b6000602082840312156114c057600080fd5b815160ff81168114610b4557600080fd5b60008160001904831182151516156114f957634e487b7160e01b600052601160045260246000fd5b500290565b60006020828403121561151057600080fd5b5051919050565b60006020828403121561152957600080fd5b8151610b458161132e565b600181811c9082168061154857607f821691505b60208210810361156857634e487b7160e01b600052602260045260246000fd5b50919050565b6000835161158081846020880161120d565b83519083019061159481836020880161120d565b01949350505050565b6001600160a01b03858116825284166020820152604081018390526080606082018190526000906115d090830184611239565b9695505050505050565b6000602082840312156115ec57600080fd5b8151610b45816111ab56fea264697066735822122049e63e45a2ff7257287f2bbee38d3ff195e3a4992fcbcf42c0ec6ac1618f2b4864736f6c634300080d0033",
    "sourcePath": "c:/Users/manue/Desktop/CryptoCupSmartContracts/contracts/CryptoCups.sol",
    "compiler": {
        "name": "solc",
        "version": "0.8.13+commit.abaa5c0e"
    },
    "functionHashes": {
        "approve(address,uint256)": "095ea7b3",
        "balanceOf(address)": "70a08231",
        "currencies(uint256)": "f6d1c271",
        "getApproved(uint256)": "081812fc",
        "isApprovedForAll(address,address)": "e985e9c5",
        "mint(uint256,uint256,uint256)": "02acc94b",
        "name()": "06fdde03",
        "ownerOf(uint256)": "6352211e",
        "prices(uint256)": "bc31c1c1",
        "safeTransferFrom(address,address,uint256)": "42842e0e",
        "safeTransferFrom(address,address,uint256,bytes)": "b88d4fde",
        "setApprovalForAll(address,bool)": "a22cb465",
        "supportsInterface(bytes4)": "01ffc9a7",
        "symbol()": "95d89b41",
        "ticketType(uint256)": "7abe73b6",
        "tokenURI(uint256)": "c87b56dd",
        "totalSupply()": "18160ddd",
        "transferFrom(address,address,uint256)": "23b872dd"
    },
    "gasEstimates": {
        "creation": {
            "codeDepositCost": "1135400",
            "executionCost": "infinite",
            "totalCost": "infinite"
        },
        "external": {
            "approve(address,uint256)": "infinite",
            "balanceOf(address)": "2618",
            "currencies(uint256)": "4724",
            "getApproved(uint256)": "6958",
            "isApprovedForAll(address,address)": "infinite",
            "mint(uint256,uint256,uint256)": "infinite",
            "name()": "infinite",
            "ownerOf(uint256)": "infinite",
            "prices(uint256)": "4619",
            "safeTransferFrom(address,address,uint256)": "infinite",
            "safeTransferFrom(address,address,uint256,bytes)": "infinite",
            "setApprovalForAll(address,bool)": "26743",
            "supportsInterface(bytes4)": "534",
            "symbol()": "infinite",
            "ticketType(uint256)": "infinite",
            "tokenURI(uint256)": "infinite",
            "totalSupply()": "4432",
            "transferFrom(address,address,uint256)": "infinite"
        }
    }
}