{
    "contractName": "CryptoCupsTickets",
    "abi": [
        {
            "inputs": [
                {
                    "internalType": "string",
                    "name": "name_",
                    "type": "string"
                },
                {
                    "internalType": "string",
                    "name": "symbol_",
                    "type": "string"
                }
            ],
            "stateMutability": "nonpayable",
            "type": "constructor"
        },
        {
            "inputs": [],
            "name": "ApprovalCallerNotOwnerNorApproved",
            "type": "error"
        },
        {
            "inputs": [],
            "name": "ApprovalQueryForNonexistentToken",
            "type": "error"
        },
        {
            "inputs": [],
            "name": "ApprovalToCurrentOwner",
            "type": "error"
        },
        {
            "inputs": [],
            "name": "ApproveToCaller",
            "type": "error"
        },
        {
            "inputs": [],
            "name": "BalanceQueryForZeroAddress",
            "type": "error"
        },
        {
            "inputs": [],
            "name": "MintToZeroAddress",
            "type": "error"
        },
        {
            "inputs": [],
            "name": "MintZeroQuantity",
            "type": "error"
        },
        {
            "inputs": [],
            "name": "OwnerQueryForNonexistentToken",
            "type": "error"
        },
        {
            "inputs": [],
            "name": "TransferCallerNotOwnerNorApproved",
            "type": "error"
        },
        {
            "inputs": [],
            "name": "TransferFromIncorrectOwner",
            "type": "error"
        },
        {
            "inputs": [],
            "name": "TransferToNonERC721ReceiverImplementer",
            "type": "error"
        },
        {
            "inputs": [],
            "name": "TransferToZeroAddress",
            "type": "error"
        },
        {
            "inputs": [],
            "name": "URIQueryForNonexistentToken",
            "type": "error"
        },
        {
            "anonymous": false,
            "inputs": [
                {
                    "indexed": true,
                    "internalType": "address",
                    "name": "owner",
                    "type": "address"
                },
                {
                    "indexed": true,
                    "internalType": "address",
                    "name": "approved",
                    "type": "address"
                },
                {
                    "indexed": true,
                    "internalType": "uint256",
                    "name": "tokenId",
                    "type": "uint256"
                }
            ],
            "name": "Approval",
            "type": "event"
        },
        {
            "anonymous": false,
            "inputs": [
                {
                    "indexed": true,
                    "internalType": "address",
                    "name": "owner",
                    "type": "address"
                },
                {
                    "indexed": true,
                    "internalType": "address",
                    "name": "operator",
                    "type": "address"
                },
                {
                    "indexed": false,
                    "internalType": "bool",
                    "name": "approved",
                    "type": "bool"
                }
            ],
            "name": "ApprovalForAll",
            "type": "event"
        },
        {
            "anonymous": false,
            "inputs": [
                {
                    "indexed": true,
                    "internalType": "address",
                    "name": "previousOwner",
                    "type": "address"
                },
                {
                    "indexed": true,
                    "internalType": "address",
                    "name": "newOwner",
                    "type": "address"
                }
            ],
            "name": "OwnershipTransferred",
            "type": "event"
        },
        {
            "anonymous": false,
            "inputs": [
                {
                    "indexed": true,
                    "internalType": "address",
                    "name": "from",
                    "type": "address"
                },
                {
                    "indexed": true,
                    "internalType": "address",
                    "name": "to",
                    "type": "address"
                },
                {
                    "indexed": true,
                    "internalType": "uint256",
                    "name": "tokenId",
                    "type": "uint256"
                }
            ],
            "name": "Transfer",
            "type": "event"
        },
        {
            "inputs": [
                {
                    "internalType": "address",
                    "name": "_newCurrency",
                    "type": "address"
                }
            ],
            "name": "addCurrency",
            "outputs": [],
            "stateMutability": "nonpayable",
            "type": "function"
        },
        {
            "inputs": [
                {
                    "internalType": "string",
                    "name": "_name",
                    "type": "string"
                },
                {
                    "internalType": "uint256",
                    "name": "_value",
                    "type": "uint256"
                }
            ],
            "name": "addTicketType",
            "outputs": [],
            "stateMutability": "nonpayable",
            "type": "function"
        },
        {
            "inputs": [
                {
                    "internalType": "address",
                    "name": "to",
                    "type": "address"
                },
                {
                    "internalType": "uint256",
                    "name": "tokenId",
                    "type": "uint256"
                }
            ],
            "name": "approve",
            "outputs": [],
            "stateMutability": "nonpayable",
            "type": "function"
        },
        {
            "inputs": [
                {
                    "internalType": "address",
                    "name": "owner",
                    "type": "address"
                }
            ],
            "name": "balanceOf",
            "outputs": [
                {
                    "internalType": "uint256",
                    "name": "",
                    "type": "uint256"
                }
            ],
            "stateMutability": "view",
            "type": "function"
        },
        {
            "inputs": [
                {
                    "internalType": "uint256",
                    "name": "_type",
                    "type": "uint256"
                },
                {
                    "internalType": "uint256",
                    "name": "_amount",
                    "type": "uint256"
                }
            ],
            "name": "changePrice",
            "outputs": [],
            "stateMutability": "nonpayable",
            "type": "function"
        },
        {
            "inputs": [
                {
                    "internalType": "uint256",
                    "name": "",
                    "type": "uint256"
                }
            ],
            "name": "currencies",
            "outputs": [
                {
                    "internalType": "address",
                    "name": "",
                    "type": "address"
                }
            ],
            "stateMutability": "view",
            "type": "function"
        },
        {
            "inputs": [
                {
                    "internalType": "uint256",
                    "name": "tokenId",
                    "type": "uint256"
                }
            ],
            "name": "getApproved",
            "outputs": [
                {
                    "internalType": "address",
                    "name": "",
                    "type": "address"
                }
            ],
            "stateMutability": "view",
            "type": "function"
        },
        {
            "inputs": [
                {
                    "internalType": "address",
                    "name": "owner",
                    "type": "address"
                },
                {
                    "internalType": "address",
                    "name": "operator",
                    "type": "address"
                }
            ],
            "name": "isApprovedForAll",
            "outputs": [
                {
                    "internalType": "bool",
                    "name": "",
                    "type": "bool"
                }
            ],
            "stateMutability": "view",
            "type": "function"
        },
        {
            "inputs": [
                {
                    "internalType": "uint256",
                    "name": "_amount",
                    "type": "uint256"
                },
                {
                    "internalType": "uint256",
                    "name": "_currency",
                    "type": "uint256"
                },
                {
                    "internalType": "uint256",
                    "name": "_type",
                    "type": "uint256"
                }
            ],
            "name": "mint",
            "outputs": [],
            "stateMutability": "nonpayable",
            "type": "function"
        },
        {
            "inputs": [],
            "name": "name",
            "outputs": [
                {
                    "internalType": "string",
                    "name": "",
                    "type": "string"
                }
            ],
            "stateMutability": "view",
            "type": "function"
        },
        {
            "inputs": [],
            "name": "owner",
            "outputs": [
                {
                    "internalType": "address",
                    "name": "",
                    "type": "address"
                }
            ],
            "stateMutability": "view",
            "type": "function"
        },
        {
            "inputs": [
                {
                    "internalType": "uint256",
                    "name": "tokenId",
                    "type": "uint256"
                }
            ],
            "name": "ownerOf",
            "outputs": [
                {
                    "internalType": "address",
                    "name": "",
                    "type": "address"
                }
            ],
            "stateMutability": "view",
            "type": "function"
        },
        {
            "inputs": [
                {
                    "internalType": "uint256",
                    "name": "",
                    "type": "uint256"
                }
            ],
            "name": "prices",
            "outputs": [
                {
                    "internalType": "uint256",
                    "name": "",
                    "type": "uint256"
                }
            ],
            "stateMutability": "view",
            "type": "function"
        },
        {
            "inputs": [],
            "name": "renounceOwnership",
            "outputs": [],
            "stateMutability": "nonpayable",
            "type": "function"
        },
        {
            "inputs": [
                {
                    "internalType": "address",
                    "name": "from",
                    "type": "address"
                },
                {
                    "internalType": "address",
                    "name": "to",
                    "type": "address"
                },
                {
                    "internalType": "uint256",
                    "name": "tokenId",
                    "type": "uint256"
                }
            ],
            "name": "safeTransferFrom",
            "outputs": [],
            "stateMutability": "nonpayable",
            "type": "function"
        },
        {
            "inputs": [
                {
                    "internalType": "address",
                    "name": "from",
                    "type": "address"
                },
                {
                    "internalType": "address",
                    "name": "to",
                    "type": "address"
                },
                {
                    "internalType": "uint256",
                    "name": "tokenId",
                    "type": "uint256"
                },
                {
                    "internalType": "bytes",
                    "name": "_data",
                    "type": "bytes"
                }
            ],
            "name": "safeTransferFrom",
            "outputs": [],
            "stateMutability": "nonpayable",
            "type": "function"
        },
        {
            "inputs": [
                {
                    "internalType": "address",
                    "name": "operator",
                    "type": "address"
                },
                {
                    "internalType": "bool",
                    "name": "approved",
                    "type": "bool"
                }
            ],
            "name": "setApprovalForAll",
            "outputs": [],
            "stateMutability": "nonpayable",
            "type": "function"
        },
        {
            "inputs": [
                {
                    "internalType": "bytes4",
                    "name": "interfaceId",
                    "type": "bytes4"
                }
            ],
            "name": "supportsInterface",
            "outputs": [
                {
                    "internalType": "bool",
                    "name": "",
                    "type": "bool"
                }
            ],
            "stateMutability": "view",
            "type": "function"
        },
        {
            "inputs": [],
            "name": "symbol",
            "outputs": [
                {
                    "internalType": "string",
                    "name": "",
                    "type": "string"
                }
            ],
            "stateMutability": "view",
            "type": "function"
        },
        {
            "inputs": [
                {
                    "internalType": "uint256",
                    "name": "",
                    "type": "uint256"
                }
            ],
            "name": "ticketType",
            "outputs": [
                {
                    "internalType": "string",
                    "name": "",
                    "type": "string"
                }
            ],
            "stateMutability": "view",
            "type": "function"
        },
        {
            "inputs": [
                {
                    "internalType": "uint256",
                    "name": "tokenId",
                    "type": "uint256"
                }
            ],
            "name": "tokenURI",
            "outputs": [
                {
                    "internalType": "string",
                    "name": "",
                    "type": "string"
                }
            ],
            "stateMutability": "view",
            "type": "function"
        },
        {
            "inputs": [],
            "name": "totalSupply",
            "outputs": [
                {
                    "internalType": "uint256",
                    "name": "",
                    "type": "uint256"
                }
            ],
            "stateMutability": "view",
            "type": "function"
        },
        {
            "inputs": [
                {
                    "internalType": "address",
                    "name": "from",
                    "type": "address"
                },
                {
                    "internalType": "address",
                    "name": "to",
                    "type": "address"
                },
                {
                    "internalType": "uint256",
                    "name": "tokenId",
                    "type": "uint256"
                }
            ],
            "name": "transferFrom",
            "outputs": [],
            "stateMutability": "nonpayable",
            "type": "function"
        },
        {
            "inputs": [
                {
                    "internalType": "address",
                    "name": "newOwner",
                    "type": "address"
                }
            ],
            "name": "transferOwnership",
            "outputs": [],
            "stateMutability": "nonpayable",
            "type": "function"
        }
    ],
    "bytecode": "600560c081815264426173696360d81b60e052608090815261014060405261010091825264109bdbdcdd60da1b6101205260a0919091526200004690600a906002620001ba565b5060408051808201909152600f8152602860208201526200006c90600b9060026200021e565b5060408051608081018252738f3cf7ad23cd3cadbd9735aff958023239c6a063815273a8d394fe7380b8ce6145d5f85e6ac22d4e91acde6020820152732791bca1f2de4661ed88a30c99a7a9449aa841749181019190915273c2132d05d31c914a87c6611c10748aeb04b58e8f6060820152620000ee90600c9060046200026f565b50348015620000fc57600080fd5b5060405162002151380380620021518339810160408190526200011f916200048b565b81518290829062000138906002906020850190620002c7565b5080516200014e906003906020840190620002c7565b50506000805550620001603362000168565b505062000531565b600880546001600160a01b038381166001600160a01b0319831681179093556040519116919082907f8be0079c531659141344cd1fd0a4f28419497f9722a3daafe3b4186f6b6457e090600090a35050565b8280548282559060005260206000209081019282156200020c579160200282015b828111156200020c5782518051620001fb918491602090910190620002c7565b5091602001919060010190620001db565b506200021a92915062000344565b5090565b82805482825590600052602060002090810192821562000261579160200282015b8281111562000261578251829060ff169055916020019190600101906200023f565b506200021a92915062000365565b82805482825590600052602060002090810192821562000261579160200282015b828111156200026157825182546001600160a01b0319166001600160a01b0390911617825560209092019160019091019062000290565b828054620002d590620004f5565b90600052602060002090601f016020900481019282620002f9576000855562000261565b82601f106200031457805160ff191683800117855562000261565b8280016001018555821562000261579182015b828111156200026157825182559160200191906001019062000327565b808211156200021a5760006200035b82826200037c565b5060010162000344565b5b808211156200021a576000815560010162000366565b5080546200038a90620004f5565b6000825580601f106200039b575050565b601f016020900490600052602060002090810190620003bb919062000365565b50565b634e487b7160e01b600052604160045260246000fd5b600082601f830112620003e657600080fd5b81516001600160401b0380821115620004035762000403620003be565b604051601f8301601f19908116603f011681019082821181831017156200042e576200042e620003be565b816040528381526020925086838588010111156200044b57600080fd5b600091505b838210156200046f578582018301518183018401529082019062000450565b83821115620004815760008385830101525b9695505050505050565b600080604083850312156200049f57600080fd5b82516001600160401b0380821115620004b757600080fd5b620004c586838701620003d4565b93506020850151915080821115620004dc57600080fd5b50620004eb85828601620003d4565b9150509250929050565b600181811c908216806200050a57607f821691505b6020821081036200052b57634e487b7160e01b600052602260045260246000fd5b50919050565b611c1080620005416000396000f3fe608060405234801561001057600080fd5b50600436106101585760003560e01c80637abe73b6116100c3578063b88d4fde1161007c578063b88d4fde146102cf578063bc31c1c1146102e2578063c87b56dd146102f5578063e985e9c514610308578063f2fde38b14610344578063f6d1c2711461035757600080fd5b80637abe73b61461026a5780638ab234b61461027d5780638da5cb5b1461029057806395d89b41146102a1578063a22cb465146102a9578063b3de019c146102bc57600080fd5b806323b872dd1161011557806323b872dd1461020357806342842e0e1461021657806351e5314c146102295780636352211e1461023c57806370a082311461024f578063715018a61461026257600080fd5b806301ffc9a71461015d57806302acc94b1461018557806306fdde031461019a578063081812fc146101af578063095ea7b3146101da57806318160ddd146101ed575b600080fd5b61017061016b3660046116c5565b61036a565b60405190151581526020015b60405180910390f35b6101986101933660046116e2565b6103bc565b005b6101a2610785565b60405161017c9190611766565b6101c26101bd366004611779565b610817565b6040516001600160a01b03909116815260200161017c565b6101986101e83660046117ae565b61085b565b600154600054035b60405190815260200161017c565b6101986102113660046117d8565b61092d565b6101986102243660046117d8565b61093d565b6101986102373660046118a0565b610958565b6101c261024a366004611779565b610aae565b6101f561025d3660046118f9565b610ac0565b610198610b0f565b6101a2610278366004611779565b610b45565b61019861028b3660046118f9565b610bdf565b6008546001600160a01b03166101c2565b6101a2610c5b565b6101986102b7366004611922565b610c6a565b6101986102ca366004611959565b610cff565b6101986102dd36600461197b565b610dce565b6101f56102f0366004611779565b610e18565b6101a2610303366004611779565b610e39565b6101706103163660046119f7565b6001600160a01b03918216600090815260076020908152604080832093909416825291909152205460ff1690565b6101986103523660046118f9565b610eca565b6101c2610365366004611779565b610f65565b60006301ffc9a760e01b6001600160e01b03198316148061039b57506380ac58cd60e01b6001600160e01b03198316145b806103b65750635b5e139f60e01b6001600160e01b03198316145b92915050565b600083116104035760405162461bcd60e51b815260206004820152600f60248201526e24b73b30b634b21020b6b7bab73a1760891b60448201526064015b60405180910390fd5b600c5482106104485760405162461bcd60e51b815260206004820152601160248201527024b73b30b634b21021bab93932b731bc9760791b60448201526064016103fa565b600a5481106104895760405162461bcd60e51b815260206004820152600d60248201526c24b73b30b634b2102a3cb8329760991b60448201526064016103fa565b6000600c838154811061049e5761049e611a2a565b60009182526020808320909101546040805163313ce56760e01b815290516001600160a01b039092169450849263313ce567926004808401938290030181865afa1580156104f0573d6000803e3d6000fd5b505050506040513d601f19601f820116820180604052508101906105149190611a40565b60ff16600b848154811061052a5761052a611a2a565b9060005260206000200154866105409190611a63565b61054a9190611a63565b9050600b838154811061055f5761055f611a2a565b6000918252602090912001546040516370a0823160e01b81523360048201526001600160a01b038416906370a0823190602401602060405180830381865afa1580156105af573d6000803e3d6000fd5b505050506040513d601f19601f820116820180604052508101906105d39190611a90565b10156106215760405162461bcd60e51b815260206004820152601a60248201527f4e6f7420456e6f7567682042616c616e636520746f205061792e00000000000060448201526064016103fa565b600b838154811061063457610634611a2a565b600091825260209091200154604051636eb1769f60e11b81523360048201523060248201526001600160a01b0384169063dd62ed3e90604401602060405180830381865afa15801561068a573d6000803e3d6000fd5b505050506040513d601f19601f820116820180604052508101906106ae9190611a90565b10156106fc5760405162461bcd60e51b815260206004820152601a60248201527f4e6f7420456e6f7567682042616c616e636520746f205061792e00000000000060448201526064016103fa565b6040516323b872dd60e01b8152336004820152306024820152604481018290526001600160a01b038316906323b872dd906064016020604051808303816000875af115801561074f573d6000803e3d6000fd5b505050506040513d601f19601f820116820180604052508101906107739190611aa9565b5061077e3386610f8f565b5050505050565b60606002805461079490611ac6565b80601f01602080910402602001604051908101604052809291908181526020018280546107c090611ac6565b801561080d5780601f106107e25761010080835404028352916020019161080d565b820191906000526020600020905b8154815290600101906020018083116107f057829003601f168201915b5050505050905090565b6000610822826110c2565b61083f576040516333d1c03960e21b815260040160405180910390fd5b506000908152600660205260409020546001600160a01b031690565b600061086682610aae565b9050806001600160a01b0316836001600160a01b03160361089a5760405163250fdee360e21b815260040160405180910390fd5b336001600160a01b038216146108d1576108b48133610316565b6108d1576040516367d9dca160e11b815260040160405180910390fd5b60008281526006602052604080822080546001600160a01b0319166001600160a01b0387811691821790925591518593918516917f8c5be1e5ebec7d5bd14f71427d1e84f3dd0314c0f7b2291e5b200ac8c7c3b92591a4505050565b6109388383836110ed565b505050565b61093883838360405180602001604052806000815250610dce565b6008546001600160a01b031633146109825760405162461bcd60e51b81526004016103fa90611b00565b60408051600081526020810180835281519020916109a291859101611b35565b60405160208183030381529060405280519060200120036109f45760405162461bcd60e51b815260206004820152600c60248201526b496e76616c6964204e616d6560a01b60448201526064016103fa565b60008111610a345760405162461bcd60e51b815260206004820152600d60248201526c496e76616c69642076616c756560981b60448201526064016103fa565b600a80546001810182556000919091528251610a77917fc65a7bb8d6351c1cf70c95a316cc6a92839c986682d98bc35f958f4883f9d2a801906020850190611616565b50600b80546001810182556000919091527f0175b7a638427703f0dbe7bb9bbf987a2551717b34e79f33b5b1008d1fa01db9015550565b6000610ab9826112e9565b5192915050565b60006001600160a01b038216610ae9576040516323d3ad8160e21b815260040160405180910390fd5b506001600160a01b031660009081526005602052604090205467ffffffffffffffff1690565b6008546001600160a01b03163314610b395760405162461bcd60e51b81526004016103fa90611b00565b610b436000611405565b565b60096020526000908152604090208054610b5e90611ac6565b80601f0160208091040260200160405190810160405280929190818152602001828054610b8a90611ac6565b8015610bd75780601f10610bac57610100808354040283529160200191610bd7565b820191906000526020600020905b815481529060010190602001808311610bba57829003601f168201915b505050505081565b6008546001600160a01b03163314610c095760405162461bcd60e51b81526004016103fa90611b00565b600c80546001810182556000919091527fdf6966c971051c3d54ec59162606531493a51404a002842f56009d7e5cf4a8c70180546001600160a01b0319166001600160a01b0392909216919091179055565b60606003805461079490611ac6565b336001600160a01b03831603610c935760405163b06307db60e01b815260040160405180910390fd5b3360008181526007602090815260408083206001600160a01b03871680855290835292819020805460ff191686151590811790915590519081529192917f17307eab39ab6107e8899845ad3d59bd9653f200f220920489ca2b5937696c31910160405180910390a35050565b6008546001600160a01b03163314610d295760405162461bcd60e51b81526004016103fa90611b00565b600b548210610d6a5760405162461bcd60e51b815260206004820152600d60248201526c24b73b30b634b2103a3cb8329760991b60448201526064016103fa565b80600003610daa5760405162461bcd60e51b815260206004820152600d60248201526c496e76616c696420507269636560981b60448201526064016103fa565b80600b8381548110610dbe57610dbe611a2a565b6000918252602090912001555050565b610dd98484846110ed565b6001600160a01b0383163b15610e1257610df584848484611457565b610e12576040516368d2bf6b60e11b815260040160405180910390fd5b50505050565b600b8181548110610e2857600080fd5b600091825260209091200154905081565b6060610e44826110c2565b610e6157604051630a14c4b560e41b815260040160405180910390fd5b6000610e7860408051602081019091526000815290565b90508051600003610e985760405180602001604052806000815250610ec3565b80610ea284611543565b604051602001610eb3929190611b51565b6040516020818303038152906040525b9392505050565b6008546001600160a01b03163314610ef45760405162461bcd60e51b81526004016103fa90611b00565b6001600160a01b038116610f595760405162461bcd60e51b815260206004820152602660248201527f4f776e61626c653a206e6577206f776e657220697320746865207a65726f206160448201526564647265737360d01b60648201526084016103fa565b610f6281611405565b50565b600c8181548110610f7557600080fd5b6000918252602090912001546001600160a01b0316905081565b6000546001600160a01b038316610fb857604051622e076360e81b815260040160405180910390fd5b81600003610fd95760405163b562e8dd60e01b815260040160405180910390fd5b6001600160a01b038316600081815260056020908152604080832080546fffffffffffffffffffffffffffffffff19811667ffffffffffffffff8083168a0181169182176801000000000000000067ffffffffffffffff1990941690921783900481168a01811690920217909155858452600490925290912080546001600160e01b031916909217600160a01b4290921691909102179055808083015b6040516001830192906001600160a01b038716906000907fddf252ad1be2c89b69c2b068fc378daa952ba7f163c4a11628f55a4df523b3ef908290a48082106110765750600055505050565b60008054821080156103b6575050600090815260046020526040902054600160e01b900460ff161590565b60006110f8826112e9565b9050836001600160a01b031681600001516001600160a01b03161461112f5760405162a1148160e81b815260040160405180910390fd5b6000336001600160a01b038616148061114d575061114d8533610316565b8061116857503361115d84610817565b6001600160a01b0316145b90508061118857604051632ce44b5f60e11b815260040160405180910390fd5b6001600160a01b0384166111af57604051633a954ecd60e21b815260040160405180910390fd5b600083815260066020908152604080832080546001600160a01b03191690556001600160a01b03888116845260058352818420805467ffffffffffffffff1980821667ffffffffffffffff92831660001901831617909255898316808752848720805493841693831660019081018416949094179055898752600490955283862080546001600160e01b031916909517600160a01b42909216919091021784558701808552919093208054929391929091166112a05760005482146112a0578054602086015167ffffffffffffffff16600160a01b026001600160e01b03199091166001600160a01b038a16171781555b50505082846001600160a01b0316866001600160a01b03167fddf252ad1be2c89b69c2b068fc378daa952ba7f163c4a11628f55a4df523b3ef60405160405180910390a461077e565b6040805160608101825260008082526020820181905291810191909152816000548110156113ec57600081815260046020908152604091829020825160608101845290546001600160a01b0381168252600160a01b810467ffffffffffffffff1692820192909252600160e01b90910460ff161515918101829052906113ea5780516001600160a01b031615611380579392505050565b5060001901600081815260046020908152604091829020825160608101845290546001600160a01b038116808352600160a01b820467ffffffffffffffff1693830193909352600160e01b900460ff16151592810192909252156113e5579392505050565b611380565b505b604051636f96cda160e11b815260040160405180910390fd5b600880546001600160a01b038381166001600160a01b0319831681179093556040519116919082907f8be0079c531659141344cd1fd0a4f28419497f9722a3daafe3b4186f6b6457e090600090a35050565b604051630a85bd0160e11b81526000906001600160a01b0385169063150b7a029061148c903390899088908890600401611b80565b6020604051808303816000875af19250505080156114c7575060408051601f3d908101601f191682019092526114c491810190611bbd565b60015b611525573d8080156114f5576040519150601f19603f3d011682016040523d82523d6000602084013e6114fa565b606091505b50805160000361151d576040516368d2bf6b60e11b815260040160405180910390fd5b805181602001fd5b6001600160e01b031916630a85bd0160e11b1490505b949350505050565b60608160000361156a5750506040805180820190915260018152600360fc1b602082015290565b8160005b811561158257600101600a8204915061156e565b60008167ffffffffffffffff81111561159d5761159d611814565b6040519080825280601f01601f1916602001820160405280156115c7576020820181803683370190505b5090505b841561153b5760001990910190600a850660300160f81b8183815181106115f4576115f4611a2a565b60200101906001600160f81b031916908160001a905350600a850494506115cb565b82805461162290611ac6565b90600052602060002090601f016020900481019282611644576000855561168a565b82601f1061165d57805160ff191683800117855561168a565b8280016001018555821561168a579182015b8281111561168a57825182559160200191906001019061166f565b5061169692915061169a565b5090565b5b80821115611696576000815560010161169b565b6001600160e01b031981168114610f6257600080fd5b6000602082840312156116d757600080fd5b8135610ec3816116af565b6000806000606084860312156116f757600080fd5b505081359360208301359350604090920135919050565b60005b83811015611729578181015183820152602001611711565b83811115610e125750506000910152565b6000815180845261175281602086016020860161170e565b601f01601f19169290920160200192915050565b602081526000610ec3602083018461173a565b60006020828403121561178b57600080fd5b5035919050565b80356001600160a01b03811681146117a957600080fd5b919050565b600080604083850312156117c157600080fd5b6117ca83611792565b946020939093013593505050565b6000806000606084860312156117ed57600080fd5b6117f684611792565b925061180460208501611792565b9150604084013590509250925092565b634e487b7160e01b600052604160045260246000fd5b600067ffffffffffffffff8084111561184557611845611814565b604051601f8501601f19908116603f0116810190828211818310171561186d5761186d611814565b8160405280935085815286868601111561188657600080fd5b858560208301376000602087830101525050509392505050565b600080604083850312156118b357600080fd5b823567ffffffffffffffff8111156118ca57600080fd5b8301601f810185136118db57600080fd5b6118ea8582356020840161182a565b95602094909401359450505050565b60006020828403121561190b57600080fd5b610ec382611792565b8015158114610f6257600080fd5b6000806040838503121561193557600080fd5b61193e83611792565b9150602083013561194e81611914565b809150509250929050565b6000806040838503121561196c57600080fd5b50508035926020909101359150565b6000806000806080858703121561199157600080fd5b61199a85611792565b93506119a860208601611792565b925060408501359150606085013567ffffffffffffffff8111156119cb57600080fd5b8501601f810187136119dc57600080fd5b6119eb8782356020840161182a565b91505092959194509250565b60008060408385031215611a0a57600080fd5b611a1383611792565b9150611a2160208401611792565b90509250929050565b634e487b7160e01b600052603260045260246000fd5b600060208284031215611a5257600080fd5b815160ff81168114610ec357600080fd5b6000816000190483118215151615611a8b57634e487b7160e01b600052601160045260246000fd5b500290565b600060208284031215611aa257600080fd5b5051919050565b600060208284031215611abb57600080fd5b8151610ec381611914565b600181811c90821680611ada57607f821691505b602082108103611afa57634e487b7160e01b600052602260045260246000fd5b50919050565b6020808252818101527f4f776e61626c653a2063616c6c6572206973206e6f7420746865206f776e6572604082015260600190565b60008251611b4781846020870161170e565b9190910192915050565b60008351611b6381846020880161170e565b835190830190611b7781836020880161170e565b01949350505050565b6001600160a01b0385811682528416602082015260408101839052608060608201819052600090611bb39083018461173a565b9695505050505050565b600060208284031215611bcf57600080fd5b8151610ec3816116af56fea2646970667358221220c15fc03a0ccd7811f4e9d3e077d24fdf8b94caf486c8d7cfd29596de9fd4e10364736f6c634300080e0033",
    "sourcePath": "/Users/manuferreras/Desktop/CryptoCupSmartContracts/contracts/CryptoCups.sol",
    "compiler": {
        "name": "solc",
        "version": "0.8.14+commit.80d49f37"
    },
    "functionHashes": {
        "addCurrency(address)": "8ab234b6",
        "addTicketType(string,uint256)": "51e5314c",
        "approve(address,uint256)": "095ea7b3",
        "balanceOf(address)": "70a08231",
        "changePrice(uint256,uint256)": "b3de019c",
        "currencies(uint256)": "f6d1c271",
        "getApproved(uint256)": "081812fc",
        "isApprovedForAll(address,address)": "e985e9c5",
        "mint(uint256,uint256,uint256)": "02acc94b",
        "name()": "06fdde03",
        "owner()": "8da5cb5b",
        "ownerOf(uint256)": "6352211e",
        "prices(uint256)": "bc31c1c1",
        "renounceOwnership()": "715018a6",
        "safeTransferFrom(address,address,uint256)": "42842e0e",
        "safeTransferFrom(address,address,uint256,bytes)": "b88d4fde",
        "setApprovalForAll(address,bool)": "a22cb465",
        "supportsInterface(bytes4)": "01ffc9a7",
        "symbol()": "95d89b41",
        "ticketType(uint256)": "7abe73b6",
        "tokenURI(uint256)": "c87b56dd",
        "totalSupply()": "18160ddd",
        "transferFrom(address,address,uint256)": "23b872dd",
        "transferOwnership(address)": "f2fde38b"
    },
    "gasEstimates": {
        "creation": {
            "codeDepositCost": "1436800",
            "executionCost": "infinite",
            "totalCost": "infinite"
        },
        "external": {
            "addCurrency(address)": "50992",
            "addTicketType(string,uint256)": "infinite",
            "approve(address,uint256)": "infinite",
            "balanceOf(address)": "2706",
            "changePrice(uint256,uint256)": "28959",
            "currencies(uint256)": "4746",
            "getApproved(uint256)": "6958",
            "isApprovedForAll(address,address)": "infinite",
            "mint(uint256,uint256,uint256)": "infinite",
            "name()": "infinite",
            "owner()": "2398",
            "ownerOf(uint256)": "infinite",
            "prices(uint256)": "4619",
            "renounceOwnership()": "28250",
            "safeTransferFrom(address,address,uint256)": "infinite",
            "safeTransferFrom(address,address,uint256,bytes)": "infinite",
            "setApprovalForAll(address,bool)": "26765",
            "supportsInterface(bytes4)": "534",
            "symbol()": "infinite",
            "ticketType(uint256)": "infinite",
            "tokenURI(uint256)": "infinite",
            "totalSupply()": "4521",
            "transferFrom(address,address,uint256)": "infinite",
            "transferOwnership(address)": "28422"
        }
    }
}